:020000001529C0
:10000600423083120313FD00FD0B07280000080091
:0A00160000000000000000000800D8
:100020001D3083120313FC009130FD00FD0B1628D8
:06003000FC0B162808007D
:1000360083120313D31B2128861322288617531BEA
:100046002628061327280617D31A2B2886122C28AB
:100056008616531A30280612312806164C183528EB
:1000660086143628861006140B200610D3193D2850
:1000760086133E2886175319422806134328061767
:10008600D318472886124828861653184C28061275
:100096004D2806164C185128861452288610061428
:1000A6000B2006104C1C592810205A280320080043
:0E00B600831203134B088A004A0882000800D8
:1000C400831203134C105208D3001B204C14080055
:1000D4007C28803083120313CE008F28C030CE00DA
:1000E4008F289430CE008F28D430CE008F288030D3
:1000F400CE008F28831203134E08013A03196B288C
:100104004E08023A031970284E08033A031973285B
:100114004E08043A0319762879284F03F0004E0854
:10012400F0077008CE007008D3001B204C10D101DA
:1001340051085007840000080319A82851085007E3
:1001440084000008D2006220D10A9A284C140800C6
:1001540083160313061086100612861206138613DE
:1001640083120610861086130613861206121020B8
:10017400102010208616061606140B2006101020D8
:1001840006140B200610102006140B200610102055
:10019400061206140B200610102006140B2006105D
:1001A4008612861706140B200610102086130616D6
:1001B40006140B200610061206140B20061010203D
:1001C40006140B200610061606140B200610102029
:1001D400061206140B200610861706178616061636
:0C01E40006140B20061010204C1408001C
:1001F0000B3083120313FB002630FC005D30FD0042
:10020000FD0B0029FC0B0029FB0B0029000000005E
:020210000800E4
:100212005B208A110A128000840ACA0A0319CB0AD7
:08022200F003031D0929080087
:10022A00AC218B010730831203139F00AA200130EF
:10023A00D3001B200C30D3001B200130CE00063027
:10024A00CF004230D0006A200230CE000630CF0004
:10025A003A30D0006A202930FB009630FC007F300B
:10026A00FD00FD0B3629FC0B3629FB0B3629013024
:10027A00D3001B200130CE000130CF002930D0003E
:10028A006A200230CE000530CF002030D0006A202C
:10029A002930FB009630FC007F30FD00FD0B53290E
:1002AA00FC0B5329FB0B5329CD0104304D020318D3
:1002BA0064291C30D3001B20F820CD0A5A29CD010D
:1002CA0008304D0203186F291830D3001B20F8207C
:1002DA00CD0A6529CD0108304D0203187A291C3050
:0E02EA00D3001B20F820CD0A702964297B293F
:10035800203084002A3083120313F0008130CA0051
:080368000130CB00092108005F
:1003020045346134733479345034493443343634A7
:020312000034B5
:100314006D3469346B3472346F3445346C34653401
:100324006B34743472346F346E3469346B346134C6
:02033400003493
:100336006534783461346D3470346C34653400342B
:100346004C34633464343434623469347434003481
:02400E006A2125
:00000001FF
